:020000040800F2
:1000000000100020190100086901000869010008BA
:1000100000000000000000000000000000000000E0
:10002000000000000000000000000000690100085E
:1000300000000000000000006901000869010008DC
:10004000690100080000000069010008690100085A
:1000500069010008690100086901000869010008D8
:10006000000000006901000869010008690100083A
:10007000690100086901000869010008000000002A
:10008000690100080000000000000000690100088C
:10009000000000006901000869010008690100080A
:1000A000000000006901000800000000690100086C
:1000B0000000000000000000000000000000000040
:1000C00010B5064C2378002B07D1054B002B02D02E
:1000D000044800E000BF0123237010BD0000002091
:1000E00000000000B4010008044B10B5002B03D041
:1000F0000349044800E000BF10BDC04600000000F6
:1001000004000020B401000880B500AFFEE780B510
:1001100000AFC046BD4680BD0D4885460D480E491E
:100120000E4A002302E0D458C4500433C4188C4251
:10013000F9D30B4A0B4C002301E013600432A242B6
:10014000FBD3FFF7E4FF00F011F8FFF7DDFFFEE758
:10015000001000200000002000000020D401000852
:10016000000000201C000020FEE7000070B5002603
:100170000C4D0D4C641BA410A64209D1002600F0C2
:1001800019F80A4D0A4C641BA410A64205D170BD93
:10019000B300EB5898470136EEE7B300EB589847A9
:1001A0000136F2E7CC010008CC010008CC010008C0
:1001B000D0010008F8B5C046F8BC08BC9E467047A0
:0C01C000F8B5C046F8BC08BC9E4670476D
:0401CC00E90000083E
:0401D000C100000862
:0400000508000119D5
:00000001FF
