:020000040800F2
:100000000028002061010008A9010008A9010008DA
:10001000A9010008A9010008A901000800000000CA
:10002000000000000000000000000000A90100081E
:10003000A901000800000000A9010008A9010008AA
:10004000A9010008A9010008A9010008A9010008E8
:10005000A9010008A9010008A9010008A9010008D8
:10006000A9010008A9010008A9010008A9010008C8
:10007000A9010008A9010008A9010008A9010008B8
:10008000A9010008A9010008A9010008A9010008A8
:10009000A9010008A9010008A9010008A901000898
:1000A000A9010008A9010008A9010008A901000888
:1000B000A9010008A901000800000000A90100082A
:1000C000A90100080000000000000000A9010008CC
:1000D00000000000A9010008A901000800000000BC
:1000E000A9010008A9010008A901000800000000FA
:1000F0000000000000000000000000000000000000
:0C01000000000000000000005FF808F1A3
:10010C0010B5054C237833B9044B13B10448AFF345
:10011C0000800123237010BD0000002000000000AF
:10012C00F401000808B5034B1BB103490348AFF3B6
:10013C00008008BD0000000004000020F40100084D
:10014C0080B400AF00BFFDE780B400AF00BFBD4678
:10015C0080BC70470C480D490D4A002302E0D4586E
:10016C00C4500433C4188C42F9D30A4A0A4C0023F5
:10017C0001E013600432A242FBD3FFF7E5FF00F06D
:10018C000FF8FFF7DDFF7047000000200000002093
:10019C0014020008000000201C000020FEE70000F4
:1001AC0070B500260C4D0D4C641BA410A64209D151
:1001BC0000F01AF800260A4D0A4C641BA410A64243
:1001CC0005D170BD55F8043B98470136EEE755F85C
:1001DC00043B98470136F2E70C0200080C020008B9
:1001EC000C02000810020008F8B500BFF8BC08BCEF
:1001FC009E467047F8B500BFF8BC08BC9E467047D9
:04020C0031010008B4
:040210000D010008D4
:04000005080001618D
:00000001FF
